:04000000DFEF0CF032
:10100000000048EC0CF0270E2F6E000E306EC5EC81
:101010000BF01F0E2F6E000E306EC5EC0BF02E0E77
:101020002F6E010E306EC5EC0BF0260E2F6E010EEA
:10103000306EC5EC0BF0030E3A6E8A0E396E560E0A
:10104000E82EFED7392EFCD73A2EFAD72E0E2F6E69
:10105000000E306EC5EC0BF0260E2F6E000E306EBB
:10106000C5EC0BF02D0E2F6E010E306EC5EC0BF0A3
:10107000250E2F6E010E306EC5EC0BF0030E3A6E8E
:101080008A0E396E560EE82EFED7392EFCD73A2E30
:10109000FAD72D0E2F6E000E306EC5EC0BF0250E1C
:1010A0002F6E000E306EC5EC0BF02C0E2F6E010E65
:1010B000306EC5EC0BF0240E2F6E010E306EC5ECB9
:1010C0000BF0030E3A6E8A0E396E560EE82EFED7DE
:1010D000392EFCD73A2EFAD72C0E2F6E000E306E1A
:1010E000C5EC0BF0240E2F6E000E306EC5EC0BF02D
:1010F0002B0E2F6E010E306EC5EC0BF0230E2F6EF3
:10110000010E306EC5EC0BF0030E3A6E8A0E396E8E
:10111000560EE82EFED7392EFCD73A2EFAD72B0ED4
:101120002F6E000E306EC5EC0BF0230E2F6E000EEE
:10113000306EC5EC0BF02A0E2F6E010E306EC5EC32
:101140000BF0220E2F6E010E306EC5EC0BF0030E6D
:101150003A6E8A0E396E560EE82EFED7392EFCD71F
:101160003A2EFAD72A0E2F6E000E306EC5EC0BF019
:10117000220E2F6E000E306EC5EC0BF0290E2F6E76
:10118000010E306EC5EC0BF0210E2F6E010E306E8D
:10119000C5EC0BF0030E3A6E8A0E396E560EE82E31
:1011A000FED7392EFCD73A2EFAD7290E2F6E000E15
:1011B000306EC5EC0BF0210E2F6E000E306EC5ECBC
:1011C0000BF0280E2F6E010E306EC5EC0BF0200ECA
:1011D0002F6E010E306EC5EC0BF0030E3A6E8A0EC8
:1011E000396E560EE82EFED7392EFCD73A2EFAD796
:1011F000280E2F6E000E306EC5EC0BF0200E2F6EF9
:10120000000E306EC5EC0BF0270E2F6E010E306E07
:10121000C5EC0BF01F0E2F6E010E306EC5EC0BF0FF
:10122000030E3A6E8A0E396E560EE82EFED7392E10
:10123000FCD73A2EFAD7270E2F6E000E306EC5EC73
:101240000BF01F0E2F6E000E306EC5EC0BF02E0E45
:101250002F6E010E306EC5EC0BF0260E2F6E010EB8
:10126000306EC5EC0BF0020E3A6E040E396EBA0EFB
:10127000E82EFED7392EFCD73A2EFAD700D02E0E04
:101280002F6E000E306EC5EC0BF0260E2F6E000E8A
:10129000306EC5EC0BF02D0E2F6E010E306EC5ECCE
:1012A0000BF0250E2F6E010E306EC5EC0BF0020E0A
:1012B0003A6E040E396EBA0EE82EFED7392EFCD7E0
:1012C0003A2EFAD700D02D0E2F6E000E306EC5ECE0
:1012D0000BF0250E2F6E000E306EC5EC0BF02C0EB1
:1012E0002F6E010E306EC5EC0BF0240E2F6E010E2A
:1012F000306EC5EC0BF0020E3A6E040E396EBA0E6B
:10130000E82EFED7392EFCD73A2EFAD700D02C0E75
:101310002F6E000E306EC5EC0BF0240E2F6E000EFB
:10132000306EC5EC0BF02B0E2F6E010E306EC5EC3F
:101330000BF0230E2F6E010E306EC5EC0BF0020E7B
:101340003A6E040E396EBA0EE82EFED7392EFCD74F
:101350003A2EFAD700D02B0E2F6E000E306EC5EC51
:101360000BF0230E2F6E000E306EC5EC0BF02A0E24
:101370002F6E010E306EC5EC0BF0220E2F6E010E9B
:10138000306EC5EC0BF0020E3A6E040E396EBA0EDA
:10139000E82EFED7392EFCD73A2EFAD700D02A0EE7
:1013A0002F6E000E306EC5EC0BF0220E2F6E000E6D
:1013B000306EC5EC0BF0290E2F6E010E306EC5ECB1
:1013C0000BF0210E2F6E010E306EC5EC0BF0020EED
:1013D0003A6E040E396EBA0EE82EFED7392EFCD7BF
:1013E0003A2EFAD700D0290E2F6E000E306EC5ECC3
:1013F0000BF0210E2F6E000E306EC5EC0BF0280E98
:101400002F6E010E306EC5EC0BF0200E2F6E010E0C
:10141000306EC5EC0BF0020E3A6E040E396EBA0E49
:10142000E82EFED7392EFCD73A2EFAD700D0280E58
:101430002F6E000E306EC5EC0BF0200E2F6E000EDE
:10144000306EC5EC0BF0270E2F6E010E306EC5EC22
:101450000BF01F0E2F6E010E306EC5EC0BF0020E5E
:101460003A6E040E396EBA0EE82EFED7392EFCD72E
:101470003A2EFAD700D0270E2F6E000E306EC5EC34
:101480000BF01F0E2F6E000E306EC5EC0BF02E0E03
:101490002F6E010E306EC5EC0BF0260E2F6E010E76
:1014A000306EC5EC0BF0820E396EDE0EE82EFED7E4
:1014B000392EFCD72E0E2F6E000E306EC5EC0BF0C1
:1014C000260E2F6E000E306EC5EC0BF02D0E2F6E1B
:1014D000010E306EC5EC0BF0250E2F6E010E306E36
:1014E000C5EC0BF0820E396EDE0EE82EFED7392EDB
:1014F000FCD72D0E2F6E000E306EC5EC0BF0250EB6
:101500002F6E000E306EC5EC0BF02C0E2F6E010E00
:10151000306EC5EC0BF0240E2F6E010E306EC5EC54
:101520000BF0820E396EDE0EE82EFED7392EFCD778
:101530002C0E2F6E000E306EC5EC0BF0240E2F6EAD
:10154000000E306EC5EC0BF02B0E2F6E010E306EC0
:10155000C5EC0BF0230E2F6E010E306EC5EC0BF0B8
:10156000820E396EDE0EE82EFED7392EFCD72B0EFA
:101570002F6E000E306EC5EC0BF0230E2F6E000E9A
:10158000306EC5EC0BF02A0E2F6E010E306EC5ECDE
:101590000BF0220E2F6E010E306EC5EC0BF0820E9A
:1015A000396EDE0EE82EFED7392EFCD72A0E2F6EAE
:1015B000000E306EC5EC0BF0220E2F6E000E306E5A
:1015C000C5EC0BF0290E2F6E010E306EC5EC0BF042
:1015D000210E2F6E010E306EC5EC0BF0820E396EAF
:1015E000DE0EE82EFED7392EFCD7290E2F6E000E08
:1015F000306EC5EC0BF0210E2F6E000E306EC5EC78
:101600000BF0280E2F6E010E306EC5EC0BF0200E85
:101610002F6E010E306EC5EC0BF0820E396EDE0EB1
:10162000E82EFED7392EFCD7280E2F6E000E306E16
:10163000C5EC0BF0200E2F6E000E306EC5EC0BF0DB
:10164000270E2F6E010E306EC5EC0BF01F0E2F6EA5
:10165000010E306EC5EC0BF0820E396EDE0EE82EF8
:10166000FED7392EFCD703EF08F000EF00F02F5023
:10167000D8B43DEF0BF03FEF0BF04FEF0BF02F50D6
:10168000D96EDA6ADF30E832E832070B306E070EC7
:1016900030644DEF0BF04FEF0BF0A4EF0BF0C4EF05
:1016A0000BF02F50D96EDA6ADF30E832E832070BE0
:1016B000306E010E316E302A60EF0BF0D89031366B
:1016C000302E5EEF0BF03150FF0A326E2F50D96E84
:1016D000DA6ADF50070B020DF350150FD96EDA6A84
:1016E000DECF33F0DDCF34F033C0D9FF34C0DAFFC2
:1016F0003250DF16C4EF0BF02F50D96EDA6ADF30AC
:10170000E832E832070B306E010E316E302A8BEF73
:101710000BF0D8903136302E89EF0BF02F50D96E68
:10172000DA6ADF50070B020DF350150FD96EDA6A33
:10173000DECF32F0DDCF33F032C0D9FF33C0DAFF75
:101740003150DF12C4EF0BF02F50D96EDA6ADFBCD4
:10175000ACEF0BF0AFEF0BF0010EB0EF0BF0000EA3
:10176000306E316A3150000AD8B4B9EF0BF04FEF48
:101770000BF03050000AD8B451EF0BF0010AD8B486
:101780007CEF0BF04FEF0BF012002F50D8B4CBEFE3
:101790000BF0CDEF0BF0DDEF0BF02F50D96EDA6AC6
:1017A000DF30E832E832070B316E070E3164DBEFD1
:1017B0000BF0DDEF0BF032EF0CF047EF0CF02F5099
:1017C000D96EDA6ADF30E832E832070B316E010E8B
:1017D000326E312AEEEF0BF0D8903236312EECEF2C
:1017E0000BF03250FF0A336E2F50D96EDA6ADF5099
:1017F000070B020DF3500B0FD96EDA6ADECF34F00F
:10180000DDCF35F034C0D9FF35C0DAFF3350DF16F5
:1018100047EF0CF02F50D96EDA6ADF30E832E83249
:10182000070B316E010E326E312A19EF0CF0D89091
:101830003236312E17EF0CF02F50D96EDA6ADF50A6
:10184000070B020DF3500B0FD96EDA6ADECF33F0BF
:10185000DDCF34F033C0D9FF34C0DAFF3250DF12AD
:1018600047EF0CF03050316E326A3250000AD8B473
:101870003CEF0CF0DDEF0BF03150000AD8B4DFEF95
:101880000BF0010AD8B40AEF0CF0DDEF0BF01200F8
:101890002E0E366E99EC0CF03B6E2D0E366E99ECDA
:1018A0000CF03B6E2C0E366E99EC0CF03B6E2B0E52
:1018B000366E99EC0CF03B6E2A0E366E99EC0CF0FD
:1018C0003B6E290E366E99EC0CF03B6E280E366E90
:1018D00099EC0CF03B6E270E366E99EC0CF03B6EDB
:1018E000260E366E99EC0CF03B6E250E366E99EC9A
:1018F0000CF03B6E240E366E99EC0CF03B6E230E12
:10190000366E99EC0CF03B6E220E366E99EC0CF0B4
:101910003B6E210E366E99EC0CF03B6E200E366E4F
:1019200099EC0CF03B6E1F0E366E99EC0CF03B6E92
:101930001200010E386E3650D8B4A1EF0CF0A3EFB0
:101940000CF0B3EF0CF03650D96EDA6ADF30E832C3
:10195000E832070B376E070E3764B1EF0CF0B3EFC8
:101960000CF0B7EF0CF0000E386EC6EF0CF036C07E
:101970002FF037EC0BF036C02FF03650D96EDA6A04
:10198000000EDFBE010E306EC5EC0BF038501200B9
:10199000800F810F820F830F840F890F8A0F8B0FA7
:1019A0008C0F8D0F920F930F940F950F960F393167
:1019B0002921191109013B332B231B130B03900E13
:1019C000F66E190EF76E000EF86E00EE01F010EED6
:1019D0002EF00900F5CFEEFFE550E150FAE1000EE0
:0819E000F86E000101EF08F0B0
:020000040030CA
:0E000000FF02091EFF8181FF0FC00FE00F40BD
:00000001FF
