:0400000004EF0BF00E
:1010000000001DEC0BF01DEC0BF0250E2E6E2BECF2
:101010000AF0030E356E8A0E346E560EE82EFED799
:10102000342EFCD7352EFAD7250E2E6E66EC0AF03C
:10103000230E2E6E2BEC0AF0030E356E8A0E346EE4
:10104000560EE82EFED7342EFCD7352EFAD7230EB7
:101050002E6E66EC0AF0210E2E6E2BEC0AF0030EBB
:10106000356E8A0E346E560EE82EFED7342EFCD71F
:10107000352EFAD7210E2E6E66EC0AF01F0E2E6E5C
:101080002BEC0AF0030E356E8A0E346E560EE82EE7
:10109000FED7342EFCD7352EFAD7250E2E6E2BEC2C
:1010A0000AF0230E2E6E2BEC0AF0210E2E6E2BEC86
:1010B0000AF01F0E2E6E2BEC0AF0030E356E8A0E10
:1010C000346E560EE82EFED7342EFCD7352EFAD7C6
:1010D000230E2C6EA1EC0AF01F0E2C6EA1EC0AF070
:1010E000030E356E8A0E346E560EE82EFED7342E61
:1010F000FCD7352EFAD7250E2C6EA1EC0AF0230E64
:101100002C6EA1EC0AF0210E2C6EA1EC0AF01F0E41
:101110002C6EA1EC0AF01A0E356E5E0E346E6E0E59
:10112000E82EFED7342EFCD7352EFAD700D003EFA9
:1011300008F000EF00F02750D8B4A1EF08F0A3EFBB
:1011400008F0B3EF08F02750D96EDA6ADF30E832E2
:10115000E832070B286E070E2864B1EF08F0B3EFF2
:1011600008F008EF09F028EF09F02750D96EDA6A85
:10117000DF30E832E832070B286E010E296E282A8C
:10118000C4EF08F0D8902936282EC2EF08F0295075
:10119000FF0A2A6E2750D96EDA6ADF50070B020D5C
:1011A000F350150FD96EDA6ADECF2BF0DDCF2CF0BD
:1011B0002BC0D9FF2CC0DAFF2A50DF1628EF09F028
:1011C0002750D96EDA6ADF30E832E832070B286E32
:1011D000010E296E282AEFEF08F0D8902936282E24
:1011E000EDEF08F02750D96EDA6ADF50070B020DD9
:1011F000F350150FD96EDA6ADECF2AF0DDCF2BF06F
:101200002AC0D9FF2BC0DAFF2950DF1228EF09F0DE
:101210002750D96EDA6ADFBC10EF09F013EF09F03E
:10122000010E14EF09F0000E286E296A2950000AF9
:10123000D8B41DEF09F0B3EF08F02850000AD8B475
:10124000B5EF08F0010AD8B4E0EF08F0B3EF08F00A
:1012500012002750D8B42FEF09F031EF09F041EF19
:1012600009F02750D96EDA6ADF30E832E832070B2E
:10127000296E070E29643FEF09F041EF09F096EF60
:1012800009F0ABEF09F02750D96EDA6ADF30E832A7
:10129000E832070B296E010E2A6E292A52EF09F057
:1012A000D8902A36292E50EF09F02A50FF0A2B6ECB
:1012B0002750D96EDA6ADF50070B020DF3500B0F7F
:1012C000D96EDA6ADECF2CF0DDCF2DF02CC0D9FF3D
:1012D0002DC0DAFF2B50DF16ABEF09F02750D96E87
:1012E000DA6ADF30E832E832070B296E010E2A6E27
:1012F000292A7DEF09F0D8902A36292E7BEF09F0B4
:101300002750D96EDA6ADF50070B020DF3500B0F2E
:10131000D96EDA6ADECF2BF0DDCF2CF02BC0D9FFEF
:101320002CC0DAFF2A50DF12ABEF09F02850296EEB
:101330002A6A2A50000AD8B4A0EF09F041EF09F058
:101340002950000AD8B443EF09F0010AD8B46EEF6F
:1013500009F041EF09F012002750D8B4B2EF09F0BC
:10136000B4EF09F0C4EF09F02750D96EDA6ADF3024
:10137000E832E832070B286E070E2864C2EF09F046
:10138000C4EF09F0C6EF09F0ECEF09F02750D96E71
:10139000DA6ADF30E832E832070B286E010E296E78
:1013A000282AD5EF09F0D8902936282ED3EF09F056
:1013B0002750D96EDA6ADF50070B020DF3500B0F7E
:1013C000D96EDA6ADECF2AF0DDCF2BF02AC0D9FF42
:1013D0002BC0DAFF2950DF1A1200010E326E305096
:1013E000D8A4F5EF09F0F7EF09F0FBEF09F0000ED4
:1013F000326E29EF0AF039C033F03050D96EDA6A14
:10140000DF500F0B316E33503118F80B3118336E3B
:101410003050D96EDA6ADF38070B316E314631460B
:10142000314633503118C70B3118336E339C30506E
:10143000D96EDA6A010ED926DF50316E313231327F
:10144000335031187F0B3118336E330E2E6EDAECB9
:101450000AF0325012002E50D8A431EF0AF033EFC8
:101460000AF035EF0AF065EF0AF038C030F02E5080
:10147000D96EDA6ADF500F0B2F6E30502F18F80B31
:101480002F18306E2E50D96EDA6ADF38070B2F6EA8
:101490002F462F462F4630502F18C70B2F18306E6F
:1014A000309C2E50D96EDA6A010ED926DF502F6E8D
:1014B0002F322F3230502F187F0B2F18306E300EF6
:1014C000276E010E286E29EC09F012002E50D8A4C8
:1014D0006CEF0AF06EEF0AF070EF0AF0A0EF0AF07E
:1014E00037C030F02E50D96EDA6ADF500F0B2F6EF6
:1014F00030502F18F80B2F18306E2E50D96EDA6A34
:10150000DF38070B2F6E2F462F462F4630502F18EF
:10151000C70B2F18306E309C2E50D96EDA6A010E30
:10152000D926DF502F6E2F322F3230502F187F0BDD
:101530002F18306E300E276E000E286E29EC09F041
:1015400012002C50D8A4A7EF0AF0A9EF0AF0ABEFD5
:101550000AF0D9EF0AF036C02EF02C50D96EDA6AB4
:10156000DF500F0B2D6E2E502D18F80B2D182E6EF0
:101570002C50D96EDA6ADF38070B2D6E2D462D46BA
:101580002D462E502D18C70B2D182E6E2E9C2C502C
:10159000D96EDA6A010ED926DF502D6E2D322D322A
:1015A0002E502D187F0B2D182E6E2E0E276EACECA4
:1015B00009F012002E50D8B4E0EF0AF0E2EF0AF082
:1015C000F2EF0AF02E50D96EDA6ADF30E832E832F4
:1015D000070B2F6E070E2F64F0EF0AF0F2EF0AF000
:1015E000F4EF0AF003EF0BF02EC027F09BEC08F0AD
:1015F0002EC027F02E50D96EDA6A000EDFBE010E23
:10160000286E29EC09F01200640EF66E160EF76EC5
:10161000000EF86E00EE01F010EE26F00900F5CF96
:10162000EEFFE550E150FAE1396A386A376A366A06
:10163000000EF86E000101EF08F0250E306EEDECA3
:1016400009F03A6E230E306EEDEC09F03A6E210E81
:10165000306EEDEC09F03A6E1F0E306EEDEC09F0D5
:101660003A6E1200800F810F820F830F840F890F53
:101670008A0F8B0F8C0F8D0F920F930F940F950F76
:0A168000960F320022001200020053
:020000040030CA
:0E000000FF02091EFF8181FF0FC00FE00F40BD
:00000001FF
